{
  "_format": "hh3-artifact-1",
  "contractName": "QuestToken",
  "sourceName": "contracts/Quest.sol",
  "abi": [
    {
      "inputs": [],
      "stateMutability": "nonpayable",
      "type": "constructor"
    },
    {
      "inputs": [
        {
          "internalType": "address",
          "name": "spender",
          "type": "address"
        },
        {
          "internalType": "uint256",
          "name": "allowance",
          "type": "uint256"
        },
        {
          "internalType": "uint256",
          "name": "needed",
          "type": "uint256"
        }
      ],
      "name": "ERC20InsufficientAllowance",
      "type": "error"
    },
    {
      "inputs": [
        {
          "internalType": "address",
          "name": "sender",
          "type": "address"
        },
        {
          "internalType": "uint256",
          "name": "balance",
          "type": "uint256"
        },
        {
          "internalType": "uint256",
          "name": "needed",
          "type": "uint256"
        }
      ],
      "name": "ERC20InsufficientBalance",
      "type": "error"
    },
    {
      "inputs": [
        {
          "internalType": "address",
          "name": "approver",
          "type": "address"
        }
      ],
      "name": "ERC20InvalidApprover",
      "type": "error"
    },
    {
      "inputs": [
        {
          "internalType": "address",
          "name": "receiver",
          "type": "address"
        }
      ],
      "name": "ERC20InvalidReceiver",
      "type": "error"
    },
    {
      "inputs": [
        {
          "internalType": "address",
          "name": "sender",
          "type": "address"
        }
      ],
      "name": "ERC20InvalidSender",
      "type": "error"
    },
    {
      "inputs": [
        {
          "internalType": "address",
          "name": "spender",
          "type": "address"
        }
      ],
      "name": "ERC20InvalidSpender",
      "type": "error"
    },
    {
      "anonymous": false,
      "inputs": [
        {
          "indexed": true,
          "internalType": "address",
          "name": "owner",
          "type": "address"
        },
        {
          "indexed": true,
          "internalType": "address",
          "name": "spender",
          "type": "address"
        },
        {
          "indexed": false,
          "internalType": "uint256",
          "name": "value",
          "type": "uint256"
        }
      ],
      "name": "Approval",
      "type": "event"
    },
    {
      "anonymous": false,
      "inputs": [
        {
          "indexed": true,
          "internalType": "address",
          "name": "from",
          "type": "address"
        },
        {
          "indexed": true,
          "internalType": "address",
          "name": "to",
          "type": "address"
        },
        {
          "indexed": false,
          "internalType": "uint256",
          "name": "value",
          "type": "uint256"
        }
      ],
      "name": "Transfer",
      "type": "event"
    },
    {
      "inputs": [
        {
          "internalType": "address",
          "name": "owner",
          "type": "address"
        },
        {
          "internalType": "address",
          "name": "spender",
          "type": "address"
        }
      ],
      "name": "allowance",
      "outputs": [
        {
          "internalType": "uint256",
          "name": "",
          "type": "uint256"
        }
      ],
      "stateMutability": "view",
      "type": "function"
    },
    {
      "inputs": [
        {
          "internalType": "address",
          "name": "spender",
          "type": "address"
        },
        {
          "internalType": "uint256",
          "name": "value",
          "type": "uint256"
        }
      ],
      "name": "approve",
      "outputs": [
        {
          "internalType": "bool",
          "name": "",
          "type": "bool"
        }
      ],
      "stateMutability": "nonpayable",
      "type": "function"
    },
    {
      "inputs": [
        {
          "internalType": "address",
          "name": "account",
          "type": "address"
        }
      ],
      "name": "balanceOf",
      "outputs": [
        {
          "internalType": "uint256",
          "name": "",
          "type": "uint256"
        }
      ],
      "stateMutability": "view",
      "type": "function"
    },
    {
      "inputs": [],
      "name": "decimals",
      "outputs": [
        {
          "internalType": "uint8",
          "name": "",
          "type": "uint8"
        }
      ],
      "stateMutability": "view",
      "type": "function"
    },
    {
      "inputs": [
        {
          "internalType": "address",
          "name": "from",
          "type": "address"
        },
        {
          "internalType": "address",
          "name": "to",
          "type": "address"
        },
        {
          "internalType": "uint256",
          "name": "amount",
          "type": "uint256"
        }
      ],
      "name": "donate",
      "outputs": [
        {
          "internalType": "bool",
          "name": "",
          "type": "bool"
        }
      ],
      "stateMutability": "nonpayable",
      "type": "function"
    },
    {
      "inputs": [
        {
          "internalType": "address",
          "name": "to",
          "type": "address"
        },
        {
          "internalType": "uint256",
          "name": "amount",
          "type": "uint256"
        }
      ],
      "name": "mint",
      "outputs": [],
      "stateMutability": "nonpayable",
      "type": "function"
    },
    {
      "inputs": [],
      "name": "name",
      "outputs": [
        {
          "internalType": "string",
          "name": "",
          "type": "string"
        }
      ],
      "stateMutability": "view",
      "type": "function"
    },
    {
      "inputs": [],
      "name": "symbol",
      "outputs": [
        {
          "internalType": "string",
          "name": "",
          "type": "string"
        }
      ],
      "stateMutability": "view",
      "type": "function"
    },
    {
      "inputs": [],
      "name": "totalSupply",
      "outputs": [
        {
          "internalType": "uint256",
          "name": "",
          "type": "uint256"
        }
      ],
      "stateMutability": "view",
      "type": "function"
    },
    {
      "inputs": [
        {
          "internalType": "address",
          "name": "to",
          "type": "address"
        },
        {
          "internalType": "uint256",
          "name": "amount",
          "type": "uint256"
        }
      ],
      "name": "transfer",
      "outputs": [
        {
          "internalType": "bool",
          "name": "",
          "type": "bool"
        }
      ],
      "stateMutability": "nonpayable",
      "type": "function"
    },
    {
      "inputs": [
        {
          "internalType": "address",
          "name": "from",
          "type": "address"
        },
        {
          "internalType": "address",
          "name": "to",
          "type": "address"
        },
        {
          "internalType": "uint256",
          "name": "value",
          "type": "uint256"
        }
      ],
      "name": "transferFrom",
      "outputs": [
        {
          "internalType": "bool",
          "name": "",
          "type": "bool"
        }
      ],
      "stateMutability": "nonpayable",
      "type": "function"
    }
  ],
  "bytecode": "0x608060405234801561001057600080fd5b506040518060400160405280600581526020017f51554553540000000000000000000000000000000000000000000000000000008152506040518060400160405280600381526020017f5153540000000000000000000000000000000000000000000000000000000000815250816003908161008c91906105e2565b50806004908161009c91906105e2565b5050506100d7336100b16100dc60201b60201c565b600a6100bd9190610823565b6305f5e1006100cc919061086e565b6100e560201b60201c565b6109a1565b60006012905090565b600073ffffffffffffffffffffffffffffffffffffffff168273ffffffffffffffffffffffffffffffffffffffff16036101575760006040517fec442f0500000000000000000000000000000000000000000000000000000000815260040161014e91906108f1565b60405180910390fd5b6101696000838361016d60201b60201c565b5050565b600073ffffffffffffffffffffffffffffffffffffffff168373ffffffffffffffffffffffffffffffffffffffff16036101bf5780600260008282546101b3919061090c565b92505081905550610292565b60008060008573ffffffffffffffffffffffffffffffffffffffff1673ffffffffffffffffffffffffffffffffffffffff1681526020019081526020016000205490508181101561024b578381836040517fe450d38c0000000000000000000000000000000000000000000000000000000081526004016102429392919061094f565b60405180910390fd5b8181036000808673ffffffffffffffffffffffffffffffffffffffff1673ffffffffffffffffffffffffffffffffffffffff16815260200190815260200160002081905550505b600073ffffffffffffffffffffffffffffffffffffffff168273ffffffffffffffffffffffffffffffffffffffff16036102db5780600260008282540392505081905550610328565b806000808473ffffffffffffffffffffffffffffffffffffffff1673ffffffffffffffffffffffffffffffffffffffff168152602001908152602001600020600082825401925050819055505b8173ffffffffffffffffffffffffffffffffffffffff168373ffffffffffffffffffffffffffffffffffffffff167fddf252ad1be2c89b69c2b068fc378daa952ba7f163c4a11628f55a4df523b3ef836040516103859190610986565b60405180910390a3505050565b600081519050919050565b7f4e487b7100000000000000000000000000000000000000000000000000000000600052604160045260246000fd5b7f4e487b7100000000000000000000000000000000000000000000000000000000600052602260045260246000fd5b6000600282049050600182168061041357607f821691505b602082108103610426576104256103cc565b5b50919050565b60008190508160005260206000209050919050565b60006020601f8301049050919050565b600082821b905092915050565b60006008830261048e7fffffffffffffffffffffffffffffffffffffffffffffffffffffffffffffffff82610451565b6104988683610451565b95508019841693508086168417925050509392505050565b6000819050919050565b6000819050919050565b60006104df6104da6104d5846104b0565b6104ba565b6104b0565b9050919050565b6000819050919050565b6104f9836104c4565b61050d610505826104e6565b84845461045e565b825550505050565b600090565b610522610515565b61052d8184846104f0565b505050565b5b818110156105515761054660008261051a565b600181019050610533565b5050565b601f821115610596576105678161042c565b61057084610441565b8101602085101561057f578190505b61059361058b85610441565b830182610532565b50505b505050565b600082821c905092915050565b60006105b96000198460080261059b565b1980831691505092915050565b60006105d283836105a8565b9150826002028217905092915050565b6105eb82610392565b67ffffffffffffffff8111156106045761060361039d565b5b61060e82546103fb565b610619828285610555565b600060209050601f83116001811461064c576000841561063a578287015190505b61064485826105c6565b8655506106ac565b601f19841661065a8661042c565b60005b828110156106825784890151825560018201915060208501945060208101905061065d565b8683101561069f578489015161069b601f8916826105a8565b8355505b6001600288020188555050505b505050505050565b7f4e487b7100000000000000000000000000000000000000000000000000000000600052601160045260246000fd5b60008160011c9050919050565b6000808291508390505b600185111561073a57808604811115610716576107156106b4565b5b60018516156107255780820291505b8081029050610733856106e3565b94506106fa565b94509492505050565b600082610753576001905061080f565b81610761576000905061080f565b81600181146107775760028114610781576107b0565b600191505061080f565b60ff841115610793576107926106b4565b5b8360020a9150848211156107aa576107a96106b4565b5b5061080f565b5060208310610133831016604e8410600b84101617156107e55782820a9050838111156107e0576107df6106b4565b5b61080f565b6107f284848460016106f0565b92509050818404811115610809576108086106b4565b5b81810290505b9392505050565b600060ff82169050919050565b600061082e826104b0565b915061083983610816565b92506108667fffffffffffffffffffffffffffffffffffffffffffffffffffffffffffffffff8484610743565b905092915050565b6000610879826104b0565b9150610884836104b0565b9250828202610892816104b0565b915082820484148315176108a9576108a86106b4565b5b5092915050565b600073ffffffffffffffffffffffffffffffffffffffff82169050919050565b60006108db826108b0565b9050919050565b6108eb816108d0565b82525050565b600060208201905061090660008301846108e2565b92915050565b6000610917826104b0565b9150610922836104b0565b925082820190508082111561093a576109396106b4565b5b92915050565b610949816104b0565b82525050565b600060608201905061096460008301866108e2565b6109716020830185610940565b61097e6040830184610940565b949350505050565b600060208201905061099b6000830184610940565b92915050565b611038806109b06000396000f3fe608060405234801561001057600080fd5b50600436106100a95760003560e01c8063386bc05a11610071578063386bc05a1461016857806340c10f191461019857806370a08231146101b457806395d89b41146101e4578063a9059cbb14610202578063dd62ed3e14610232576100a9565b806306fdde03146100ae578063095ea7b3146100cc57806318160ddd146100fc57806323b872dd1461011a578063313ce5671461014a575b600080fd5b6100b6610262565b6040516100c39190610bfa565b60405180910390f35b6100e660048036038101906100e19190610cb5565b6102f4565b6040516100f39190610d10565b60405180910390f35b610104610317565b6040516101119190610d3a565b60405180910390f35b610134600480360381019061012f9190610d55565b610321565b6040516101419190610d10565b60405180910390f35b610152610350565b60405161015f9190610dc4565b60405180910390f35b610182600480360381019061017d9190610d55565b610359565b60405161018f9190610d10565b60405180910390f35b6101b260048036038101906101ad9190610cb5565b6103bc565b005b6101ce60048036038101906101c99190610ddf565b6103ca565b6040516101db9190610d3a565b60405180910390f35b6101ec610412565b6040516101f99190610bfa565b60405180910390f35b61021c60048036038101906102179190610cb5565b6104a4565b6040516102299190610d10565b60405180910390f35b61024c60048036038101906102479190610e0c565b6104c2565b6040516102599190610d3a565b60405180910390f35b60606003805461027190610e7b565b80601f016020809104026020016040519081016040528092919081815260200182805461029d90610e7b565b80156102ea5780601f106102bf576101008083540402835291602001916102ea565b820191906000526020600020905b8154815290600101906020018083116102cd57829003601f168201915b5050505050905090565b6000806102ff610549565b905061030c818585610551565b600191505092915050565b6000600254905090565b60008061032c610549565b9050610339858285610563565b6103448585856105f8565b60019150509392505050565b60006012905090565b600081610365856103ca565b10156103a6576040517f08c379a000000000000000000000000000000000000000000000000000000000815260040161039d90610f1e565b60405180910390fd5b6103b18484846105f8565b600190509392505050565b6103c682826106ec565b5050565b60008060008373ffffffffffffffffffffffffffffffffffffffff1673ffffffffffffffffffffffffffffffffffffffff168152602001908152602001600020549050919050565b60606004805461042190610e7b565b80601f016020809104026020016040519081016040528092919081815260200182805461044d90610e7b565b801561049a5780601f1061046f5761010080835404028352916020019161049a565b820191906000526020600020905b81548152906001019060200180831161047d57829003601f168201915b5050505050905090565b60006104b86104b1610549565b84846105f8565b6001905092915050565b6000600160008473ffffffffffffffffffffffffffffffffffffffff1673ffffffffffffffffffffffffffffffffffffffff16815260200190815260200160002060008373ffffffffffffffffffffffffffffffffffffffff1673ffffffffffffffffffffffffffffffffffffffff16815260200190815260200160002054905092915050565b600033905090565b61055e838383600161076e565b505050565b600061056f84846104c2565b90507fffffffffffffffffffffffffffffffffffffffffffffffffffffffffffffffff8110156105f257818110156105e2578281836040517ffb8f41b20000000000000000000000000000000000000000000000000000000081526004016105d993929190610f4d565b60405180910390fd5b6105f18484848403600061076e565b5b50505050565b600073ffffffffffffffffffffffffffffffffffffffff168373ffffffffffffffffffffffffffffffffffffffff160361066a5760006040517f96c6fd1e0000000000000000000000000000000000000000000000000000000081526004016106619190610f84565b60405180910390fd5b600073ffffffffffffffffffffffffffffffffffffffff168273ffffffffffffffffffffffffffffffffffffffff16036106dc5760006040517fec442f050000000000000000000000000000000000000000000000000000000081526004016106d39190610f84565b60405180910390fd5b6106e7838383610945565b505050565b600073ffffffffffffffffffffffffffffffffffffffff168273ffffffffffffffffffffffffffffffffffffffff160361075e5760006040517fec442f050000000000000000000000000000000000000000000000000000000081526004016107559190610f84565b60405180910390fd5b61076a60008383610945565b5050565b600073ffffffffffffffffffffffffffffffffffffffff168473ffffffffffffffffffffffffffffffffffffffff16036107e05760006040517fe602df050000000000000000000000000000000000000000000000000000000081526004016107d79190610f84565b60405180910390fd5b600073ffffffffffffffffffffffffffffffffffffffff168373ffffffffffffffffffffffffffffffffffffffff16036108525760006040517f94280d620000000000000000000000000000000000000000000000000000000081526004016108499190610f84565b60405180910390fd5b81600160008673ffffffffffffffffffffffffffffffffffffffff1673ffffffffffffffffffffffffffffffffffffffff16815260200190815260200160002060008573ffffffffffffffffffffffffffffffffffffffff1673ffffffffffffffffffffffffffffffffffffffff16815260200190815260200160002081905550801561093f578273ffffffffffffffffffffffffffffffffffffffff168473ffffffffffffffffffffffffffffffffffffffff167f8c5be1e5ebec7d5bd14f71427d1e84f3dd0314c0f7b2291e5b200ac8c7c3b925846040516109369190610d3a565b60405180910390a35b50505050565b600073ffffffffffffffffffffffffffffffffffffffff168373ffffffffffffffffffffffffffffffffffffffff160361099757806002600082825461098b9190610fce565b92505081905550610a6a565b60008060008573ffffffffffffffffffffffffffffffffffffffff1673ffffffffffffffffffffffffffffffffffffffff16815260200190815260200160002054905081811015610a23578381836040517fe450d38c000000000000000000000000000000000000000000000000000000008152600401610a1a93929190610f4d565b60405180910390fd5b8181036000808673ffffffffffffffffffffffffffffffffffffffff1673ffffffffffffffffffffffffffffffffffffffff16815260200190815260200160002081905550505b600073ffffffffffffffffffffffffffffffffffffffff168273ffffffffffffffffffffffffffffffffffffffff1603610ab35780600260008282540392505081905550610b00565b806000808473ffffffffffffffffffffffffffffffffffffffff1673ffffffffffffffffffffffffffffffffffffffff168152602001908152602001600020600082825401925050819055505b8173ffffffffffffffffffffffffffffffffffffffff168373ffffffffffffffffffffffffffffffffffffffff167fddf252ad1be2c89b69c2b068fc378daa952ba7f163c4a11628f55a4df523b3ef83604051610b5d9190610d3a565b60405180910390a3505050565b600081519050919050565b600082825260208201905092915050565b60005b83811015610ba4578082015181840152602081019050610b89565b60008484015250505050565b6000601f19601f8301169050919050565b6000610bcc82610b6a565b610bd68185610b75565b9350610be6818560208601610b86565b610bef81610bb0565b840191505092915050565b60006020820190508181036000830152610c148184610bc1565b905092915050565b600080fd5b600073ffffffffffffffffffffffffffffffffffffffff82169050919050565b6000610c4c82610c21565b9050919050565b610c5c81610c41565b8114610c6757600080fd5b50565b600081359050610c7981610c53565b92915050565b6000819050919050565b610c9281610c7f565b8114610c9d57600080fd5b50565b600081359050610caf81610c89565b92915050565b60008060408385031215610ccc57610ccb610c1c565b5b6000610cda85828601610c6a565b9250506020610ceb85828601610ca0565b9150509250929050565b60008115159050919050565b610d0a81610cf5565b82525050565b6000602082019050610d256000830184610d01565b92915050565b610d3481610c7f565b82525050565b6000602082019050610d4f6000830184610d2b565b92915050565b600080600060608486031215610d6e57610d6d610c1c565b5b6000610d7c86828701610c6a565b9350506020610d8d86828701610c6a565b9250506040610d9e86828701610ca0565b9150509250925092565b600060ff82169050919050565b610dbe81610da8565b82525050565b6000602082019050610dd96000830184610db5565b92915050565b600060208284031215610df557610df4610c1c565b5b6000610e0384828501610c6a565b91505092915050565b60008060408385031215610e2357610e22610c1c565b5b6000610e3185828601610c6a565b9250506020610e4285828601610c6a565b9150509250929050565b7f4e487b7100000000000000000000000000000000000000000000000000000000600052602260045260246000fd5b60006002820490506001821680610e9357607f821691505b602082108103610ea657610ea5610e4c565b5b50919050565b7f496e73756666696369656e7420616d6f756e7420696e20646f6e6f722773207760008201527f616c6c6574000000000000000000000000000000000000000000000000000000602082015250565b6000610f08602583610b75565b9150610f1382610eac565b604082019050919050565b60006020820190508181036000830152610f3781610efb565b9050919050565b610f4781610c41565b82525050565b6000606082019050610f626000830186610f3e565b610f6f6020830185610d2b565b610f7c6040830184610d2b565b949350505050565b6000602082019050610f996000830184610f3e565b92915050565b7f4e487b7100000000000000000000000000000000000000000000000000000000600052601160045260246000fd5b6000610fd982610c7f565b9150610fe483610c7f565b9250828201905080821115610ffc57610ffb610f9f565b5b9291505056fea26469706673582212207f476fa1a4f832c874df627d25fe3c5a5b2f3321f9d06c1ece66cabae30c47d064736f6c634300081c0033",
  "linkReferences": {},
  "deployedLinkReferences": {},
  "immutableReferences": {},
  "inputSourceName": "project/contracts/Quest.sol",
  "buildInfoId": "solc-0_8_28-258daf69514c1eece181cfb600a0ec27faf926fe"
}